{
  "_format": "hh-sol-artifact-1",
  "contractName": "TokenLocker",
  "sourceName": "contracts/TokenLocker.sol",
  "abi": [
    {
      "inputs": [],
      "stateMutability": "nonpayable",
      "type": "constructor"
    },
    {
      "anonymous": false,
      "inputs": [
        {
          "indexed": true,
          "internalType": "address",
          "name": "account",
          "type": "address"
        },
        {
          "indexed": false,
          "internalType": "uint256",
          "name": "start",
          "type": "uint256"
        },
        {
          "indexed": false,
          "internalType": "uint256",
          "name": "iterations",
          "type": "uint256"
        },
        {
          "indexed": false,
          "internalType": "uint256",
          "name": "totalLockAmount",
          "type": "uint256"
        },
        {
          "indexed": false,
          "internalType": "uint256",
          "name": "eachLockPeriod",
          "type": "uint256"
        },
        {
          "indexed": false,
          "internalType": "uint256",
          "name": "end",
          "type": "uint256"
        }
      ],
      "name": "LockChanged",
      "type": "event"
    },
    {
      "anonymous": false,
      "inputs": [
        {
          "indexed": true,
          "internalType": "address",
          "name": "previousOwner",
          "type": "address"
        },
        {
          "indexed": true,
          "internalType": "address",
          "name": "newOwner",
          "type": "address"
        }
      ],
      "name": "OwnershipTransferred",
      "type": "event"
    },
    {
      "inputs": [
        {
          "internalType": "address",
          "name": "_account",
          "type": "address"
        }
      ],
      "name": "getLock",
      "outputs": [
        {
          "internalType": "uint256",
          "name": "startTime",
          "type": "uint256"
        },
        {
          "internalType": "uint256",
          "name": "iterations",
          "type": "uint256"
        },
        {
          "internalType": "uint256",
          "name": "totalAmount",
          "type": "uint256"
        },
        {
          "internalType": "uint256",
          "name": "eachLockPeriod",
          "type": "uint256"
        },
        {
          "internalType": "uint256",
          "name": "endTime",
          "type": "uint256"
        }
      ],
      "stateMutability": "view",
      "type": "function"
    },
    {
      "inputs": [
        {
          "internalType": "address",
          "name": "_account",
          "type": "address"
        }
      ],
      "name": "getLockDetails",
      "outputs": [
        {
          "internalType": "uint256",
          "name": "",
          "type": "uint256"
        },
        {
          "internalType": "uint256",
          "name": "",
          "type": "uint256"
        }
      ],
      "stateMutability": "view",
      "type": "function"
    },
    {
      "inputs": [
        {
          "internalType": "address",
          "name": "",
          "type": "address"
        }
      ],
      "name": "lockStates",
      "outputs": [
        {
          "internalType": "address",
          "name": "account",
          "type": "address"
        },
        {
          "internalType": "uint256",
          "name": "startTime",
          "type": "uint256"
        },
        {
          "internalType": "uint256",
          "name": "iterations",
          "type": "uint256"
        },
        {
          "internalType": "uint256",
          "name": "totalAmount",
          "type": "uint256"
        },
        {
          "internalType": "uint256",
          "name": "eachLockPeriod",
          "type": "uint256"
        },
        {
          "internalType": "uint256",
          "name": "endTime",
          "type": "uint256"
        }
      ],
      "stateMutability": "view",
      "type": "function"
    },
    {
      "inputs": [],
      "name": "owner",
      "outputs": [
        {
          "internalType": "address",
          "name": "",
          "type": "address"
        }
      ],
      "stateMutability": "view",
      "type": "function"
    },
    {
      "inputs": [
        {
          "internalType": "address",
          "name": "_account",
          "type": "address"
        }
      ],
      "name": "removeLock",
      "outputs": [],
      "stateMutability": "nonpayable",
      "type": "function"
    },
    {
      "inputs": [],
      "name": "renounceOwnership",
      "outputs": [],
      "stateMutability": "nonpayable",
      "type": "function"
    },
    {
      "inputs": [
        {
          "internalType": "address",
          "name": "_account",
          "type": "address"
        },
        {
          "internalType": "uint256",
          "name": "_delay",
          "type": "uint256"
        },
        {
          "internalType": "uint256",
          "name": "_iterations",
          "type": "uint256"
        },
        {
          "internalType": "uint256",
          "name": "_totalLockAmount",
          "type": "uint256"
        },
        {
          "internalType": "uint256",
          "name": "_eachLockPeriod",
          "type": "uint256"
        }
      ],
      "name": "setLock",
      "outputs": [],
      "stateMutability": "nonpayable",
      "type": "function"
    },
    {
      "inputs": [
        {
          "internalType": "address",
          "name": "newOwner",
          "type": "address"
        }
      ],
      "name": "transferOwnership",
      "outputs": [],
      "stateMutability": "nonpayable",
      "type": "function"
    }
  ],
  "bytecode": "0x608060405234801561001057600080fd5b5060006100216100c460201b60201c565b9050806000806101000a81548173ffffffffffffffffffffffffffffffffffffffff021916908373ffffffffffffffffffffffffffffffffffffffff1602179055508073ffffffffffffffffffffffffffffffffffffffff16600073ffffffffffffffffffffffffffffffffffffffff167f8be0079c531659141344cd1fd0a4f28419497f9722a3daafe3b4186f6b6457e060405160405180910390a3506100cc565b600033905090565b61115c806100db6000396000f3fe608060405234801561001057600080fd5b50600436106100885760003560e01c8063715018a61161005b578063715018a6146101435780637857637c1461014d5780638da5cb5b14610169578063f2fde38b1461018757610088565b806315056b541461008d57806337580f90146100be5780634a387bef146100f35780636b9db4e61461010f575b600080fd5b6100a760048036038101906100a29190610c10565b6101a3565b6040516100b5929190610e32565b60405180910390f35b6100d860048036038101906100d39190610c10565b610334565b6040516100ea96959493929190610d3e565b60405180910390f35b61010d60048036038101906101089190610c10565b610390565b005b61012960048036038101906101249190610c10565b6104f8565b60405161013a959493929190610e5b565b60405180910390f35b61014b610662565b005b61016760048036038101906101629190610c39565b61079c565b005b6101716109ca565b60405161017e9190610d23565b60405180910390f35b6101a1600480360381019061019c9190610c10565b6109f3565b005b6000806000600160008573ffffffffffffffffffffffffffffffffffffffff1673ffffffffffffffffffffffffffffffffffffffff1681526020019081526020016000206040518060c00160405290816000820160009054906101000a900473ffffffffffffffffffffffffffffffffffffffff1673ffffffffffffffffffffffffffffffffffffffff1673ffffffffffffffffffffffffffffffffffffffff1681526020016001820154815260200160028201548152602001600382015481526020016004820154815260200160058201548152505090504281602001511180610292575060008160200151145b156102ab5780604001518160600151925092505061032f565b428160a00151116102c357600080925092505061032f565b60006102f282608001516102e4428560a00151610b9c90919063ffffffff16565b610bb290919063ffffffff16565b905060006103238360400151610315848660600151610bc890919063ffffffff16565b610bb290919063ffffffff16565b90508181945094505050505b915091565b60016020528060005260406000206000915090508060000160009054906101000a900473ffffffffffffffffffffffffffffffffffffffff16908060010154908060020154908060030154908060040154908060050154905086565b610398610bde565b73ffffffffffffffffffffffffffffffffffffffff166103b66109ca565b73ffffffffffffffffffffffffffffffffffffffff161461040c576040517f08c379a000000000000000000000000000000000000000000000000000000000815260040161040390610e12565b60405180910390fd5b600160008273ffffffffffffffffffffffffffffffffffffffff1673ffffffffffffffffffffffffffffffffffffffff168152602001908152602001600020600080820160006101000a81549073ffffffffffffffffffffffffffffffffffffffff02191690556001820160009055600282016000905560038201600090556004820160009055600582016000905550508073ffffffffffffffffffffffffffffffffffffffff167e53a2d0a74627ad6d346bc05ca92631666b0cec11ac95505fe1f048f3845e1160008060008060006040516104ed959493929190610d9f565b60405180910390a250565b6000806000806000600160008773ffffffffffffffffffffffffffffffffffffffff1673ffffffffffffffffffffffffffffffffffffffff16815260200190815260200160002060010154600160008873ffffffffffffffffffffffffffffffffffffffff1673ffffffffffffffffffffffffffffffffffffffff16815260200190815260200160002060020154600160008973ffffffffffffffffffffffffffffffffffffffff1673ffffffffffffffffffffffffffffffffffffffff16815260200190815260200160002060030154600160008a73ffffffffffffffffffffffffffffffffffffffff1673ffffffffffffffffffffffffffffffffffffffff16815260200190815260200160002060040154600160008b73ffffffffffffffffffffffffffffffffffffffff1673ffffffffffffffffffffffffffffffffffffffff168152602001908152602001600020600501549450945094509450945091939590929450565b61066a610bde565b73ffffffffffffffffffffffffffffffffffffffff166106886109ca565b73ffffffffffffffffffffffffffffffffffffffff16146106de576040517f08c379a00000000000000000000000000000000000000000000000000000000081526004016106d590610e12565b60405180910390fd5b600073ffffffffffffffffffffffffffffffffffffffff1660008054906101000a900473ffffffffffffffffffffffffffffffffffffffff1673ffffffffffffffffffffffffffffffffffffffff167f8be0079c531659141344cd1fd0a4f28419497f9722a3daafe3b4186f6b6457e060405160405180910390a360008060006101000a81548173ffffffffffffffffffffffffffffffffffffffff021916908373ffffffffffffffffffffffffffffffffffffffff160217905550565b6107a4610bde565b73ffffffffffffffffffffffffffffffffffffffff166107c26109ca565b73ffffffffffffffffffffffffffffffffffffffff1614610818576040517f08c379a000000000000000000000000000000000000000000000000000000000815260040161080f90610e12565b60405180910390fd5b6040518060c001604052808673ffffffffffffffffffffffffffffffffffffffff168152602001428661084b9190610ebf565b8152602001848152602001838152602001828152602001828561086e9190610f46565b428761087a9190610ebf565b6108849190610ebf565b815250600160008773ffffffffffffffffffffffffffffffffffffffff1673ffffffffffffffffffffffffffffffffffffffff16815260200190815260200160002060008201518160000160006101000a81548173ffffffffffffffffffffffffffffffffffffffff021916908373ffffffffffffffffffffffffffffffffffffffff1602179055506020820151816001015560408201518160020155606082015181600301556080820151816004015560a082015181600501559050508473ffffffffffffffffffffffffffffffffffffffff167e53a2d0a74627ad6d346bc05ca92631666b0cec11ac95505fe1f048f3845e1142866109859190610ebf565b85858586896109949190610f46565b428b6109a09190610ebf565b6109aa9190610ebf565b6040516109bb959493929190610e5b565b60405180910390a25050505050565b60008060009054906101000a900473ffffffffffffffffffffffffffffffffffffffff16905090565b6109fb610bde565b73ffffffffffffffffffffffffffffffffffffffff16610a196109ca565b73ffffffffffffffffffffffffffffffffffffffff1614610a6f576040517f08c379a0000000000000000000000000000000000000000000000000000000008152600401610a6690610e12565b60405180910390fd5b600073ffffffffffffffffffffffffffffffffffffffff168173ffffffffffffffffffffffffffffffffffffffff161415610adf576040517f08c379a0000000000000000000000000000000000000000000000000000000008152600401610ad690610df2565b60405180910390fd5b8073ffffffffffffffffffffffffffffffffffffffff1660008054906101000a900473ffffffffffffffffffffffffffffffffffffffff1673ffffffffffffffffffffffffffffffffffffffff167f8be0079c531659141344cd1fd0a4f28419497f9722a3daafe3b4186f6b6457e060405160405180910390a3806000806101000a81548173ffffffffffffffffffffffffffffffffffffffff021916908373ffffffffffffffffffffffffffffffffffffffff16021790555050565b60008183610baa9190610fa0565b905092915050565b60008183610bc09190610f15565b905092915050565b60008183610bd69190610f46565b905092915050565b600033905090565b600081359050610bf5816110f8565b92915050565b600081359050610c0a8161110f565b92915050565b600060208284031215610c2257600080fd5b6000610c3084828501610be6565b91505092915050565b600080600080600060a08688031215610c5157600080fd5b6000610c5f88828901610be6565b9550506020610c7088828901610bfb565b9450506040610c8188828901610bfb565b9350506060610c9288828901610bfb565b9250506080610ca388828901610bfb565b9150509295509295909350565b610cb981610fd4565b82525050565b610cc881611010565b82525050565b6000610cdb602683610eae565b9150610ce682611080565b604082019050919050565b6000610cfe602083610eae565b9150610d09826110cf565b602082019050919050565b610d1d81611006565b82525050565b6000602082019050610d386000830184610cb0565b92915050565b600060c082019050610d536000830189610cb0565b610d606020830188610d14565b610d6d6040830187610d14565b610d7a6060830186610d14565b610d876080830185610d14565b610d9460a0830184610d14565b979650505050505050565b600060a082019050610db46000830188610cbf565b610dc16020830187610cbf565b610dce6040830186610cbf565b610ddb6060830185610cbf565b610de86080830184610cbf565b9695505050505050565b60006020820190508181036000830152610e0b81610cce565b9050919050565b60006020820190508181036000830152610e2b81610cf1565b9050919050565b6000604082019050610e476000830185610d14565b610e546020830184610d14565b9392505050565b600060a082019050610e706000830188610d14565b610e7d6020830187610d14565b610e8a6040830186610d14565b610e976060830185610d14565b610ea46080830184610d14565b9695505050505050565b600082825260208201905092915050565b6000610eca82611006565b9150610ed583611006565b9250827fffffffffffffffffffffffffffffffffffffffffffffffffffffffffffffffff03821115610f0a57610f09611022565b5b828201905092915050565b6000610f2082611006565b9150610f2b83611006565b925082610f3b57610f3a611051565b5b828204905092915050565b6000610f5182611006565b9150610f5c83611006565b9250817fffffffffffffffffffffffffffffffffffffffffffffffffffffffffffffffff0483118215151615610f9557610f94611022565b5b828202905092915050565b6000610fab82611006565b9150610fb683611006565b925082821015610fc957610fc8611022565b5b828203905092915050565b6000610fdf82610fe6565b9050919050565b600073ffffffffffffffffffffffffffffffffffffffff82169050919050565b6000819050919050565b600061101b82611006565b9050919050565b7f4e487b7100000000000000000000000000000000000000000000000000000000600052601160045260246000fd5b7f4e487b7100000000000000000000000000000000000000000000000000000000600052601260045260246000fd5b7f4f776e61626c653a206e6577206f776e657220697320746865207a65726f206160008201527f6464726573730000000000000000000000000000000000000000000000000000602082015250565b7f4f776e61626c653a2063616c6c6572206973206e6f7420746865206f776e6572600082015250565b61110181610fd4565b811461110c57600080fd5b50565b61111881611006565b811461112357600080fd5b5056fea26469706673582212205d36558c38d5de72cf72ad47681db26e95ea890f5a46e1dd39b88f7573e3053764736f6c63430008030033",
  "linkReferences": {},
  "deployedLinkReferences": {}
}