{
  "_format": "hh-sol-artifact-1",
  "contractName": "CoinmecaTokenUpgrades",
  "sourceName": "contracts/test-helpers/CoinmecaTokenUpgrades.sol",
  "abi": [
    {
      "anonymous": false,
      "inputs": [
        {
          "indexed": true,
          "internalType": "address",
          "name": "owner",
          "type": "address"
        },
        {
          "indexed": true,
          "internalType": "address",
          "name": "spender",
          "type": "address"
        },
        {
          "indexed": false,
          "internalType": "uint256",
          "name": "value",
          "type": "uint256"
        }
      ],
      "name": "Approval",
      "type": "event"
    },
    {
      "anonymous": false,
      "inputs": [
        {
          "indexed": true,
          "internalType": "address",
          "name": "previousOwner",
          "type": "address"
        },
        {
          "indexed": true,
          "internalType": "address",
          "name": "newOwner",
          "type": "address"
        }
      ],
      "name": "OwnershipTransferred",
      "type": "event"
    },
    {
      "anonymous": false,
      "inputs": [
        {
          "indexed": false,
          "internalType": "address",
          "name": "account",
          "type": "address"
        }
      ],
      "name": "Paused",
      "type": "event"
    },
    {
      "anonymous": false,
      "inputs": [
        {
          "indexed": true,
          "internalType": "address",
          "name": "from",
          "type": "address"
        },
        {
          "indexed": true,
          "internalType": "address",
          "name": "to",
          "type": "address"
        },
        {
          "indexed": false,
          "internalType": "uint256",
          "name": "value",
          "type": "uint256"
        }
      ],
      "name": "Transfer",
      "type": "event"
    },
    {
      "anonymous": false,
      "inputs": [
        {
          "indexed": false,
          "internalType": "address",
          "name": "account",
          "type": "address"
        }
      ],
      "name": "Unpaused",
      "type": "event"
    },
    {
      "inputs": [],
      "name": "TOKEN_LOCKER",
      "outputs": [
        {
          "internalType": "bytes32",
          "name": "",
          "type": "bytes32"
        }
      ],
      "stateMutability": "view",
      "type": "function"
    },
    {
      "inputs": [
        {
          "internalType": "address",
          "name": "owner",
          "type": "address"
        },
        {
          "internalType": "address",
          "name": "spender",
          "type": "address"
        }
      ],
      "name": "allowance",
      "outputs": [
        {
          "internalType": "uint256",
          "name": "",
          "type": "uint256"
        }
      ],
      "stateMutability": "view",
      "type": "function"
    },
    {
      "inputs": [
        {
          "internalType": "address",
          "name": "spender",
          "type": "address"
        },
        {
          "internalType": "uint256",
          "name": "amount",
          "type": "uint256"
        }
      ],
      "name": "approve",
      "outputs": [
        {
          "internalType": "bool",
          "name": "",
          "type": "bool"
        }
      ],
      "stateMutability": "nonpayable",
      "type": "function"
    },
    {
      "inputs": [
        {
          "internalType": "address",
          "name": "account",
          "type": "address"
        }
      ],
      "name": "balanceOf",
      "outputs": [
        {
          "internalType": "uint256",
          "name": "",
          "type": "uint256"
        }
      ],
      "stateMutability": "view",
      "type": "function"
    },
    {
      "inputs": [],
      "name": "decimals",
      "outputs": [
        {
          "internalType": "uint8",
          "name": "",
          "type": "uint8"
        }
      ],
      "stateMutability": "view",
      "type": "function"
    },
    {
      "inputs": [
        {
          "internalType": "address",
          "name": "spender",
          "type": "address"
        },
        {
          "internalType": "uint256",
          "name": "subtractedValue",
          "type": "uint256"
        }
      ],
      "name": "decreaseAllowance",
      "outputs": [
        {
          "internalType": "bool",
          "name": "",
          "type": "bool"
        }
      ],
      "stateMutability": "nonpayable",
      "type": "function"
    },
    {
      "inputs": [
        {
          "internalType": "bytes32",
          "name": "_key",
          "type": "bytes32"
        }
      ],
      "name": "getContractAddress",
      "outputs": [
        {
          "internalType": "address",
          "name": "",
          "type": "address"
        }
      ],
      "stateMutability": "view",
      "type": "function"
    },
    {
      "inputs": [
        {
          "internalType": "address",
          "name": "_account",
          "type": "address"
        },
        {
          "internalType": "uint256",
          "name": "_amount",
          "type": "uint256"
        }
      ],
      "name": "getIsLocked",
      "outputs": [
        {
          "internalType": "bool",
          "name": "",
          "type": "bool"
        }
      ],
      "stateMutability": "view",
      "type": "function"
    },
    {
      "inputs": [
        {
          "internalType": "address",
          "name": "_account",
          "type": "address"
        }
      ],
      "name": "getLock",
      "outputs": [
        {
          "internalType": "uint256",
          "name": "",
          "type": "uint256"
        },
        {
          "internalType": "uint256",
          "name": "",
          "type": "uint256"
        },
        {
          "internalType": "uint256",
          "name": "",
          "type": "uint256"
        },
        {
          "internalType": "uint256",
          "name": "",
          "type": "uint256"
        },
        {
          "internalType": "uint256",
          "name": "",
          "type": "uint256"
        }
      ],
      "stateMutability": "view",
      "type": "function"
    },
    {
      "inputs": [
        {
          "internalType": "address",
          "name": "_account",
          "type": "address"
        }
      ],
      "name": "getSetter",
      "outputs": [
        {
          "internalType": "uint256",
          "name": "",
          "type": "uint256"
        }
      ],
      "stateMutability": "view",
      "type": "function"
    },
    {
      "inputs": [
        {
          "internalType": "address",
          "name": "spender",
          "type": "address"
        },
        {
          "internalType": "uint256",
          "name": "addedValue",
          "type": "uint256"
        }
      ],
      "name": "increaseAllowance",
      "outputs": [
        {
          "internalType": "bool",
          "name": "",
          "type": "bool"
        }
      ],
      "stateMutability": "nonpayable",
      "type": "function"
    },
    {
      "inputs": [
        {
          "internalType": "address",
          "name": "_locker",
          "type": "address"
        }
      ],
      "name": "initialize",
      "outputs": [],
      "stateMutability": "nonpayable",
      "type": "function"
    },
    {
      "inputs": [],
      "name": "name",
      "outputs": [
        {
          "internalType": "string",
          "name": "",
          "type": "string"
        }
      ],
      "stateMutability": "view",
      "type": "function"
    },
    {
      "inputs": [],
      "name": "owner",
      "outputs": [
        {
          "internalType": "address",
          "name": "",
          "type": "address"
        }
      ],
      "stateMutability": "view",
      "type": "function"
    },
    {
      "inputs": [],
      "name": "pause",
      "outputs": [],
      "stateMutability": "nonpayable",
      "type": "function"
    },
    {
      "inputs": [],
      "name": "paused",
      "outputs": [
        {
          "internalType": "bool",
          "name": "",
          "type": "bool"
        }
      ],
      "stateMutability": "view",
      "type": "function"
    },
    {
      "inputs": [],
      "name": "renounceOwnership",
      "outputs": [],
      "stateMutability": "nonpayable",
      "type": "function"
    },
    {
      "inputs": [
        {
          "internalType": "bytes32",
          "name": "_key",
          "type": "bytes32"
        },
        {
          "internalType": "address",
          "name": "_address",
          "type": "address"
        }
      ],
      "name": "setContractAddress",
      "outputs": [],
      "stateMutability": "nonpayable",
      "type": "function"
    },
    {
      "inputs": [
        {
          "internalType": "address",
          "name": "_account",
          "type": "address"
        },
        {
          "internalType": "uint256",
          "name": "_data",
          "type": "uint256"
        }
      ],
      "name": "setSetter",
      "outputs": [],
      "stateMutability": "nonpayable",
      "type": "function"
    },
    {
      "inputs": [],
      "name": "symbol",
      "outputs": [
        {
          "internalType": "string",
          "name": "",
          "type": "string"
        }
      ],
      "stateMutability": "view",
      "type": "function"
    },
    {
      "inputs": [],
      "name": "totalSupply",
      "outputs": [
        {
          "internalType": "uint256",
          "name": "",
          "type": "uint256"
        }
      ],
      "stateMutability": "view",
      "type": "function"
    },
    {
      "inputs": [
        {
          "internalType": "address",
          "name": "recipient",
          "type": "address"
        },
        {
          "internalType": "uint256",
          "name": "amount",
          "type": "uint256"
        }
      ],
      "name": "transfer",
      "outputs": [
        {
          "internalType": "bool",
          "name": "",
          "type": "bool"
        }
      ],
      "stateMutability": "nonpayable",
      "type": "function"
    },
    {
      "inputs": [
        {
          "internalType": "address",
          "name": "sender",
          "type": "address"
        },
        {
          "internalType": "address",
          "name": "recipient",
          "type": "address"
        },
        {
          "internalType": "uint256",
          "name": "amount",
          "type": "uint256"
        }
      ],
      "name": "transferFrom",
      "outputs": [
        {
          "internalType": "bool",
          "name": "",
          "type": "bool"
        }
      ],
      "stateMutability": "nonpayable",
      "type": "function"
    },
    {
      "inputs": [
        {
          "internalType": "address",
          "name": "newOwner",
          "type": "address"
        }
      ],
      "name": "transferOwnership",
      "outputs": [],
      "stateMutability": "nonpayable",
      "type": "function"
    },
    {
      "inputs": [],
      "name": "unpause",
      "outputs": [],
      "stateMutability": "nonpayable",
      "type": "function"
    }
  ],
  "bytecode": "0x608060405234801561001057600080fd5b506135dc806100206000396000f3fe608060405234801561001057600080fd5b50600436106101735760003560e01c80636b9db4e6116100de578063a457c2d711610097578063dd62ed3e11610071578063dd62ed3e14610454578063e001f84114610484578063f2fde38b146104a0578063fbc11281146104bc57610173565b8063a457c2d7146103d8578063a9059cbb14610408578063c4d66de81461043857610173565b80636b9db4e61461032457806370a0823114610358578063715018a6146103885780638456cb59146103925780638da5cb5b1461039c57806395d89b41146103ba57610173565b8063313ce56711610130578063313ce5671461027457806339509351146102925780633b765953146102c25780633f4ba83a146102e05780635c975abb146102ea5780636032212a1461030857610173565b806306fdde0314610178578063095ea7b3146101965780630d2020dd146101c657806318160ddd146101f657806323b872dd1461021457806329055dd914610244575b600080fd5b6101806104ec565b60405161018d9190612c88565b60405180910390f35b6101b060048036038101906101ab919061280c565b61057e565b6040516101bd9190612c52565b60405180910390f35b6101e060048036038101906101db9190612848565b61059c565b6040516101ed9190612c37565b60405180910390f35b6101fe6105d9565b60405161020b9190612eca565b60405180910390f35b61022e600480360381019061022991906127bd565b6105e3565b60405161023b9190612c52565b60405180910390f35b61025e6004803603810190610259919061280c565b6106e4565b60405161026b9190612c52565b60405180910390f35b61027c6106f8565b6040516102899190612f38565b60405180910390f35b6102ac60048036038101906102a7919061280c565b610701565b6040516102b99190612c52565b60405180910390f35b6102ca6107ad565b6040516102d79190612c6d565b60405180910390f35b6102e86107d1565b005b6102f2610857565b6040516102ff9190612c52565b60405180910390f35b610322600480360381019061031d919061280c565b61086e565b005b61033e60048036038101906103399190612758565b6108b6565b60405161034f959493929190612ee5565b60405180910390f35b610372600480360381019061036d9190612758565b610961565b60405161037f9190612eca565b60405180910390f35b610390610adc565b005b61039a610c19565b005b6103a4610c9f565b6040516103b19190612c37565b60405180910390f35b6103c2610cc9565b6040516103cf9190612c88565b60405180910390f35b6103f260048036038101906103ed919061280c565b610d5b565b6040516103ff9190612c52565b60405180910390f35b610422600480360381019061041d919061280c565b610e4f565b60405161042f9190612c52565b60405180910390f35b610452600480360381019061044d9190612758565b610e6d565b005b61046e60048036038101906104699190612781565b611059565b60405161047b9190612eca565b60405180910390f35b61049e60048036038101906104999190612871565b6110e0565b005b6104ba60048036038101906104b59190612758565b6111b2565b005b6104d660048036038101906104d19190612758565b61135e565b6040516104e39190612eca565b60405180910390f35b6060606880546104fb9061308b565b80601f01602080910402602001604051908101604052809291908181526020018280546105279061308b565b80156105745780601f1061054957610100808354040283529160200191610574565b820191906000526020600020905b81548152906001019060200180831161055757829003601f168201915b5050505050905090565b600061059261058b6113a7565b84846113af565b6001905092915050565b600060fb600083815260200190815260200160002060009054906101000a900473ffffffffffffffffffffffffffffffffffffffff169050919050565b6000606754905090565b60006105f084848461157a565b6000606660008673ffffffffffffffffffffffffffffffffffffffff1673ffffffffffffffffffffffffffffffffffffffff168152602001908152602001600020600061063b6113a7565b73ffffffffffffffffffffffffffffffffffffffff1673ffffffffffffffffffffffffffffffffffffffff168152602001908152602001600020549050828110156106bb576040517f08c379a00000000000000000000000000000000000000000000000000000000081526004016106b290612daa565b60405180910390fd5b6106d8856106c76113a7565b85846106d39190612fc5565b6113af565b60019150509392505050565b60006106f083836117fc565b905092915050565b60006012905090565b60006107a361070e6113a7565b84846066600061071c6113a7565b73ffffffffffffffffffffffffffffffffffffffff1673ffffffffffffffffffffffffffffffffffffffff16815260200190815260200160002060008873ffffffffffffffffffffffffffffffffffffffff1673ffffffffffffffffffffffffffffffffffffffff1681526020019081526020016000205461079e9190612f6f565b6113af565b6001905092915050565b7f546f6b656e4c6f636b657200000000000000000000000000000000000000000081565b6107d96113a7565b73ffffffffffffffffffffffffffffffffffffffff166107f7610c9f565b73ffffffffffffffffffffffffffffffffffffffff161461084d576040517f08c379a000000000000000000000000000000000000000000000000000000000815260040161084490612dea565b60405180910390fd5b610855611a5e565b565b6000609760009054906101000a900460ff16905090565b8060fc60008473ffffffffffffffffffffffffffffffffffffffff1673ffffffffffffffffffffffffffffffffffffffff168152602001908152602001600020819055505050565b60008060008060006108c6611b00565b73ffffffffffffffffffffffffffffffffffffffff16636b9db4e6876040518263ffffffff1660e01b81526004016108fe9190612c37565b60a06040518083038186803b15801561091657600080fd5b505afa15801561092a573d6000803e3d6000fd5b505050506040513d601f19601f8201168201806040525081019061094e91906128e9565b9450945094509450945091939590929450565b60008073ffffffffffffffffffffffffffffffffffffffff1660fb60007f546f6b656e4c6f636b6572000000000000000000000000000000000000000000815260200190815260200160002060009054906101000a900473ffffffffffffffffffffffffffffffffffffffff1673ffffffffffffffffffffffffffffffffffffffff161415610a25576040517f08c379a0000000000000000000000000000000000000000000000000000000008152600401610a1c90612e4a565b60405180910390fd5b6000610a2f611b00565b73ffffffffffffffffffffffffffffffffffffffff166315056b54846040518263ffffffff1660e01b8152600401610a679190612c37565b604080518083038186803b158015610a7e57600080fd5b505afa158015610a92573d6000803e3d6000fd5b505050506040513d601f19601f82011682018060405250810190610ab691906128ad565b915050610ad481610ac685611b5b565b611ba490919063ffffffff16565b915050919050565b610ae46113a7565b73ffffffffffffffffffffffffffffffffffffffff16610b02610c9f565b73ffffffffffffffffffffffffffffffffffffffff1614610b58576040517f08c379a0000000000000000000000000000000000000000000000000000000008152600401610b4f90612dea565b60405180910390fd5b600073ffffffffffffffffffffffffffffffffffffffff16603360009054906101000a900473ffffffffffffffffffffffffffffffffffffffff1673ffffffffffffffffffffffffffffffffffffffff167f8be0079c531659141344cd1fd0a4f28419497f9722a3daafe3b4186f6b6457e060405160405180910390a36000603360006101000a81548173ffffffffffffffffffffffffffffffffffffffff021916908373ffffffffffffffffffffffffffffffffffffffff160217905550565b610c216113a7565b73ffffffffffffffffffffffffffffffffffffffff16610c3f610c9f565b73ffffffffffffffffffffffffffffffffffffffff1614610c95576040517f08c379a0000000000000000000000000000000000000000000000000000000008152600401610c8c90612dea565b60405180910390fd5b610c9d611bba565b565b6000603360009054906101000a900473ffffffffffffffffffffffffffffffffffffffff16905090565b606060698054610cd89061308b565b80601f0160208091040260200160405190810160405280929190818152602001828054610d049061308b565b8015610d515780601f10610d2657610100808354040283529160200191610d51565b820191906000526020600020905b815481529060010190602001808311610d3457829003601f168201915b5050505050905090565b60008060666000610d6a6113a7565b73ffffffffffffffffffffffffffffffffffffffff1673ffffffffffffffffffffffffffffffffffffffff16815260200190815260200160002060008573ffffffffffffffffffffffffffffffffffffffff1673ffffffffffffffffffffffffffffffffffffffff16815260200190815260200160002054905082811015610e27576040517f08c379a0000000000000000000000000000000000000000000000000000000008152600401610e1e90612e6a565b60405180910390fd5b610e44610e326113a7565b858584610e3f9190612fc5565b6113af565b600191505092915050565b6000610e63610e5c6113a7565b848461157a565b6001905092915050565b600060019054906101000a900460ff1680610e93575060008054906101000a900460ff16155b610ed2576040517f08c379a0000000000000000000000000000000000000000000000000000000008152600401610ec990612d8a565b60405180910390fd5b60008060019054906101000a900460ff161590508015610f22576001600060016101000a81548160ff02191690831515021790555060016000806101000a81548160ff0219169083151502179055505b610f2a611c5d565b610f9e6040518060400160405280600881526020017f436f696e6d6563610000000000000000000000000000000000000000000000008152506040518060400160405280600481526020017f4d45434100000000000000000000000000000000000000000000000000000000815250611d46565b610fa6611e33565b8160fb60007f546f6b656e4c6f636b6572000000000000000000000000000000000000000000815260200190815260200160002060006101000a81548173ffffffffffffffffffffffffffffffffffffffff021916908373ffffffffffffffffffffffffffffffffffffffff1602179055506110346110236113a7565b6a084595161401484a000000611f24565b80156110555760008060016101000a81548160ff0219169083151502179055505b5050565b6000606660008473ffffffffffffffffffffffffffffffffffffffff1673ffffffffffffffffffffffffffffffffffffffff16815260200190815260200160002060008373ffffffffffffffffffffffffffffffffffffffff1673ffffffffffffffffffffffffffffffffffffffff16815260200190815260200160002054905092915050565b6110e86113a7565b73ffffffffffffffffffffffffffffffffffffffff16611106610c9f565b73ffffffffffffffffffffffffffffffffffffffff161461115c576040517f08c379a000000000000000000000000000000000000000000000000000000000815260040161115390612dea565b60405180910390fd5b8060fb600084815260200190815260200160002060006101000a81548173ffffffffffffffffffffffffffffffffffffffff021916908373ffffffffffffffffffffffffffffffffffffffff1602179055505050565b6111ba6113a7565b73ffffffffffffffffffffffffffffffffffffffff166111d8610c9f565b73ffffffffffffffffffffffffffffffffffffffff161461122e576040517f08c379a000000000000000000000000000000000000000000000000000000000815260040161122590612dea565b60405180910390fd5b600073ffffffffffffffffffffffffffffffffffffffff168173ffffffffffffffffffffffffffffffffffffffff16141561129e576040517f08c379a000000000000000000000000000000000000000000000000000000000815260040161129590612cea565b60405180910390fd5b8073ffffffffffffffffffffffffffffffffffffffff16603360009054906101000a900473ffffffffffffffffffffffffffffffffffffffff1673ffffffffffffffffffffffffffffffffffffffff167f8be0079c531659141344cd1fd0a4f28419497f9722a3daafe3b4186f6b6457e060405160405180910390a380603360006101000a81548173ffffffffffffffffffffffffffffffffffffffff021916908373ffffffffffffffffffffffffffffffffffffffff16021790555050565b600060fc60008373ffffffffffffffffffffffffffffffffffffffff1673ffffffffffffffffffffffffffffffffffffffff168152602001908152602001600020549050919050565b600033905090565b600073ffffffffffffffffffffffffffffffffffffffff168373ffffffffffffffffffffffffffffffffffffffff16141561141f576040517f08c379a000000000000000000000000000000000000000000000000000000000815260040161141690612e2a565b60405180910390fd5b600073ffffffffffffffffffffffffffffffffffffffff168273ffffffffffffffffffffffffffffffffffffffff16141561148f576040517f08c379a000000000000000000000000000000000000000000000000000000000815260040161148690612d0a565b60405180910390fd5b80606660008573ffffffffffffffffffffffffffffffffffffffff1673ffffffffffffffffffffffffffffffffffffffff16815260200190815260200160002060008473ffffffffffffffffffffffffffffffffffffffff1673ffffffffffffffffffffffffffffffffffffffff168152602001908152602001600020819055508173ffffffffffffffffffffffffffffffffffffffff168373ffffffffffffffffffffffffffffffffffffffff167f8c5be1e5ebec7d5bd14f71427d1e84f3dd0314c0f7b2291e5b200ac8c7c3b9258360405161156d9190612eca565b60405180910390a3505050565b600073ffffffffffffffffffffffffffffffffffffffff168373ffffffffffffffffffffffffffffffffffffffff1614156115ea576040517f08c379a00000000000000000000000000000000000000000000000000000000081526004016115e190612e0a565b60405180910390fd5b600073ffffffffffffffffffffffffffffffffffffffff168273ffffffffffffffffffffffffffffffffffffffff16141561165a576040517f08c379a000000000000000000000000000000000000000000000000000000000815260040161165190612caa565b60405180910390fd5b611665838383612079565b6000606560008573ffffffffffffffffffffffffffffffffffffffff1673ffffffffffffffffffffffffffffffffffffffff168152602001908152602001600020549050818110156116ec576040517f08c379a00000000000000000000000000000000000000000000000000000000081526004016116e390612d2a565b60405180910390fd5b81816116f89190612fc5565b606560008673ffffffffffffffffffffffffffffffffffffffff1673ffffffffffffffffffffffffffffffffffffffff1681526020019081526020016000208190555081606560008573ffffffffffffffffffffffffffffffffffffffff1673ffffffffffffffffffffffffffffffffffffffff168152602001908152602001600020600082825461178a9190612f6f565b925050819055508273ffffffffffffffffffffffffffffffffffffffff168473ffffffffffffffffffffffffffffffffffffffff167fddf252ad1be2c89b69c2b068fc378daa952ba7f163c4a11628f55a4df523b3ef846040516117ee9190612eca565b60405180910390a350505050565b60008073ffffffffffffffffffffffffffffffffffffffff1660fb60007f546f6b656e4c6f636b6572000000000000000000000000000000000000000000815260200190815260200160002060009054906101000a900473ffffffffffffffffffffffffffffffffffffffff1673ffffffffffffffffffffffffffffffffffffffff1614156118c0576040517f08c379a00000000000000000000000000000000000000000000000000000000081526004016118b790612d4a565b60405180910390fd5b6000806118cb611b00565b73ffffffffffffffffffffffffffffffffffffffff16636b9db4e6866040518263ffffffff1660e01b81526004016119039190612c37565b60a06040518083038186803b15801561191b57600080fd5b505afa15801561192f573d6000803e3d6000fd5b505050506040513d601f19601f8201168201806040525081019061195391906128e9565b94505050509150600082148061196857504281105b1561197857600092505050611a58565b4282111561198b57600192505050611a58565b6000611995611b00565b73ffffffffffffffffffffffffffffffffffffffff166315056b54876040518263ffffffff1660e01b81526004016119cd9190612c37565b604080518083038186803b1580156119e457600080fd5b505afa1580156119f8573d6000803e3d6000fd5b505050506040513d601f19601f82011682018060405250810190611a1c91906128ad565b9150506000611a2a87611b5b565b905081611a408783611ba490919063ffffffff16565b1015611a53576001945050505050611a58565b505050505b92915050565b611a66610857565b611aa5576040517f08c379a0000000000000000000000000000000000000000000000000000000008152600401611a9c90612cca565b60405180910390fd5b6000609760006101000a81548160ff0219169083151502179055507f5db9ee0a495bf2e6ff9c91a7834c1ba4fdd244a5e8aa4e537bd38aeae4b073aa611ae96113a7565b604051611af69190612c37565b60405180910390a1565b600060fb60007f546f6b656e4c6f636b6572000000000000000000000000000000000000000000815260200190815260200160002060009054906101000a900473ffffffffffffffffffffffffffffffffffffffff16905090565b6000606560008373ffffffffffffffffffffffffffffffffffffffff1673ffffffffffffffffffffffffffffffffffffffff168152602001908152602001600020549050919050565b60008183611bb29190612fc5565b905092915050565b611bc2610857565b15611c02576040517f08c379a0000000000000000000000000000000000000000000000000000000008152600401611bf990612d6a565b60405180910390fd5b6001609760006101000a81548160ff0219169083151502179055507f62e78cea01bee320cd4e420270b5ea74000d11b0c9f74754ebdbfc544b05a258611c466113a7565b604051611c539190612c37565b60405180910390a1565b600060019054906101000a900460ff1680611c83575060008054906101000a900460ff16155b611cc2576040517f08c379a0000000000000000000000000000000000000000000000000000000008152600401611cb990612d8a565b60405180910390fd5b60008060019054906101000a900460ff161590508015611d12576001600060016101000a81548160ff02191690831515021790555060016000806101000a81548160ff0219169083151502179055505b611d1a6120d3565b611d226121ac565b8015611d435760008060016101000a81548160ff0219169083151502179055505b50565b600060019054906101000a900460ff1680611d6c575060008054906101000a900460ff16155b611dab576040517f08c379a0000000000000000000000000000000000000000000000000000000008152600401611da290612d8a565b60405180910390fd5b60008060019054906101000a900460ff161590508015611dfb576001600060016101000a81548160ff02191690831515021790555060016000806101000a81548160ff0219169083151502179055505b611e036120d3565b611e0d838361232e565b8015611e2e5760008060016101000a81548160ff0219169083151502179055505b505050565b600060019054906101000a900460ff1680611e59575060008054906101000a900460ff16155b611e98576040517f08c379a0000000000000000000000000000000000000000000000000000000008152600401611e8f90612d8a565b60405180910390fd5b60008060019054906101000a900460ff161590508015611ee8576001600060016101000a81548160ff02191690831515021790555060016000806101000a81548160ff0219169083151502179055505b611ef06120d3565b611ef8612437565b611f0061252b565b8015611f215760008060016101000a81548160ff0219169083151502179055505b50565b600073ffffffffffffffffffffffffffffffffffffffff168273ffffffffffffffffffffffffffffffffffffffff161415611f94576040517f08c379a0000000000000000000000000000000000000000000000000000000008152600401611f8b90612e8a565b60405180910390fd5b611fa060008383612079565b8060676000828254611fb29190612f6f565b9250508190555080606560008473ffffffffffffffffffffffffffffffffffffffff1673ffffffffffffffffffffffffffffffffffffffff16815260200190815260200160002060008282546120089190612f6f565b925050819055508173ffffffffffffffffffffffffffffffffffffffff16600073ffffffffffffffffffffffffffffffffffffffff167fddf252ad1be2c89b69c2b068fc378daa952ba7f163c4a11628f55a4df523b3ef8360405161206d9190612eca565b60405180910390a35050565b612084838383612604565b61208e83826117fc565b156120ce576040517f08c379a00000000000000000000000000000000000000000000000000000000081526004016120c590612dca565b60405180910390fd5b505050565b600060019054906101000a900460ff16806120f9575060008054906101000a900460ff16155b612138576040517f08c379a000000000000000000000000000000000000000000000000000000000815260040161212f90612d8a565b60405180910390fd5b60008060019054906101000a900460ff161590508015612188576001600060016101000a81548160ff02191690831515021790555060016000806101000a81548160ff0219169083151502179055505b80156121a95760008060016101000a81548160ff0219169083151502179055505b50565b600060019054906101000a900460ff16806121d2575060008054906101000a900460ff16155b612211576040517f08c379a000000000000000000000000000000000000000000000000000000000815260040161220890612d8a565b60405180910390fd5b60008060019054906101000a900460ff161590508015612261576001600060016101000a81548160ff02191690831515021790555060016000806101000a81548160ff0219169083151502179055505b600061226b6113a7565b905080603360006101000a81548173ffffffffffffffffffffffffffffffffffffffff021916908373ffffffffffffffffffffffffffffffffffffffff1602179055508073ffffffffffffffffffffffffffffffffffffffff16600073ffffffffffffffffffffffffffffffffffffffff167f8be0079c531659141344cd1fd0a4f28419497f9722a3daafe3b4186f6b6457e060405160405180910390a350801561232b5760008060016101000a81548160ff0219169083151502179055505b50565b600060019054906101000a900460ff1680612354575060008054906101000a900460ff16155b612393576040517f08c379a000000000000000000000000000000000000000000000000000000000815260040161238a90612d8a565b60405180910390fd5b60008060019054906101000a900460ff1615905080156123e3576001600060016101000a81548160ff02191690831515021790555060016000806101000a81548160ff0219169083151502179055505b82606890805190602001906123f9929190612661565b508160699080519060200190612410929190612661565b5080156124325760008060016101000a81548160ff0219169083151502179055505b505050565b600060019054906101000a900460ff168061245d575060008054906101000a900460ff16155b61249c576040517f08c379a000000000000000000000000000000000000000000000000000000000815260040161249390612d8a565b60405180910390fd5b60008060019054906101000a900460ff1615905080156124ec576001600060016101000a81548160ff02191690831515021790555060016000806101000a81548160ff0219169083151502179055505b6000609760006101000a81548160ff02191690831515021790555080156125285760008060016101000a81548160ff0219169083151502179055505b50565b600060019054906101000a900460ff1680612551575060008054906101000a900460ff16155b612590576040517f08c379a000000000000000000000000000000000000000000000000000000000815260040161258790612d8a565b60405180910390fd5b60008060019054906101000a900460ff1615905080156125e0576001600060016101000a81548160ff02191690831515021790555060016000806101000a81548160ff0219169083151502179055505b80156126015760008060016101000a81548160ff0219169083151502179055505b50565b61260f83838361265c565b612617610857565b15612657576040517f08c379a000000000000000000000000000000000000000000000000000000000815260040161264e90612eaa565b60405180910390fd5b505050565b505050565b82805461266d9061308b565b90600052602060002090601f01602090048101928261268f57600085556126d6565b82601f106126a857805160ff19168380011785556126d6565b828001600101855582156126d6579182015b828111156126d55782518255916020019190600101906126ba565b5b5090506126e391906126e7565b5090565b5b808211156127005760008160009055506001016126e8565b5090565b60008135905061271381613561565b92915050565b60008135905061272881613578565b92915050565b60008135905061273d8161358f565b92915050565b6000815190506127528161358f565b92915050565b60006020828403121561276a57600080fd5b600061277884828501612704565b91505092915050565b6000806040838503121561279457600080fd5b60006127a285828601612704565b92505060206127b385828601612704565b9150509250929050565b6000806000606084860312156127d257600080fd5b60006127e086828701612704565b93505060206127f186828701612704565b92505060406128028682870161272e565b9150509250925092565b6000806040838503121561281f57600080fd5b600061282d85828601612704565b925050602061283e8582860161272e565b9150509250929050565b60006020828403121561285a57600080fd5b600061286884828501612719565b91505092915050565b6000806040838503121561288457600080fd5b600061289285828601612719565b92505060206128a385828601612704565b9150509250929050565b600080604083850312156128c057600080fd5b60006128ce85828601612743565b92505060206128df85828601612743565b9150509250929050565b600080600080600060a0868803121561290157600080fd5b600061290f88828901612743565b955050602061292088828901612743565b945050604061293188828901612743565b935050606061294288828901612743565b925050608061295388828901612743565b9150509295509295909350565b61296981612ff9565b82525050565b6129788161300b565b82525050565b61298781613017565b82525050565b600061299882612f53565b6129a28185612f5e565b93506129b2818560208601613058565b6129bb8161311b565b840191505092915050565b60006129d3602383612f5e565b91506129de8261312c565b604082019050919050565b60006129f6601483612f5e565b9150612a018261317b565b602082019050919050565b6000612a19602683612f5e565b9150612a24826131a4565b604082019050919050565b6000612a3c602283612f5e565b9150612a47826131f3565b604082019050919050565b6000612a5f602683612f5e565b9150612a6a82613242565b604082019050919050565b6000612a82601183612f5e565b9150612a8d82613291565b602082019050919050565b6000612aa5601083612f5e565b9150612ab0826132ba565b602082019050919050565b6000612ac8602e83612f5e565b9150612ad3826132e3565b604082019050919050565b6000612aeb602883612f5e565b9150612af682613332565b604082019050919050565b6000612b0e601183612f5e565b9150612b1982613381565b602082019050919050565b6000612b31602083612f5e565b9150612b3c826133aa565b602082019050919050565b6000612b54602583612f5e565b9150612b5f826133d3565b604082019050919050565b6000612b77602483612f5e565b9150612b8282613422565b604082019050919050565b6000612b9a601983612f5e565b9150612ba582613471565b602082019050919050565b6000612bbd602583612f5e565b9150612bc88261349a565b604082019050919050565b6000612be0601f83612f5e565b9150612beb826134e9565b602082019050919050565b6000612c03602a83612f5e565b9150612c0e82613512565b604082019050919050565b612c2281613041565b82525050565b612c318161304b565b82525050565b6000602082019050612c4c6000830184612960565b92915050565b6000602082019050612c67600083018461296f565b92915050565b6000602082019050612c82600083018461297e565b92915050565b60006020820190508181036000830152612ca2818461298d565b905092915050565b60006020820190508181036000830152612cc3816129c6565b9050919050565b60006020820190508181036000830152612ce3816129e9565b9050919050565b60006020820190508181036000830152612d0381612a0c565b9050919050565b60006020820190508181036000830152612d2381612a2f565b9050919050565b60006020820190508181036000830152612d4381612a52565b9050919050565b60006020820190508181036000830152612d6381612a75565b9050919050565b60006020820190508181036000830152612d8381612a98565b9050919050565b60006020820190508181036000830152612da381612abb565b9050919050565b60006020820190508181036000830152612dc381612ade565b9050919050565b60006020820190508181036000830152612de381612b01565b9050919050565b60006020820190508181036000830152612e0381612b24565b9050919050565b60006020820190508181036000830152612e2381612b47565b9050919050565b60006020820190508181036000830152612e4381612b6a565b9050919050565b60006020820190508181036000830152612e6381612b8d565b9050919050565b60006020820190508181036000830152612e8381612bb0565b9050919050565b60006020820190508181036000830152612ea381612bd3565b9050919050565b60006020820190508181036000830152612ec381612bf6565b9050919050565b6000602082019050612edf6000830184612c19565b92915050565b600060a082019050612efa6000830188612c19565b612f076020830187612c19565b612f146040830186612c19565b612f216060830185612c19565b612f2e6080830184612c19565b9695505050505050565b6000602082019050612f4d6000830184612c28565b92915050565b600081519050919050565b600082825260208201905092915050565b6000612f7a82613041565b9150612f8583613041565b9250827fffffffffffffffffffffffffffffffffffffffffffffffffffffffffffffffff03821115612fba57612fb96130bd565b5b828201905092915050565b6000612fd082613041565b9150612fdb83613041565b925082821015612fee57612fed6130bd565b5b828203905092915050565b600061300482613021565b9050919050565b60008115159050919050565b6000819050919050565b600073ffffffffffffffffffffffffffffffffffffffff82169050919050565b6000819050919050565b600060ff82169050919050565b60005b8381101561307657808201518184015260208101905061305b565b83811115613085576000848401525b50505050565b600060028204905060018216806130a357607f821691505b602082108114156130b7576130b66130ec565b5b50919050565b7f4e487b7100000000000000000000000000000000000000000000000000000000600052601160045260246000fd5b7f4e487b7100000000000000000000000000000000000000000000000000000000600052602260045260246000fd5b6000601f19601f8301169050919050565b7f45524332303a207472616e7366657220746f20746865207a65726f206164647260008201527f6573730000000000000000000000000000000000000000000000000000000000602082015250565b7f5061757361626c653a206e6f7420706175736564000000000000000000000000600082015250565b7f4f776e61626c653a206e6577206f776e657220697320746865207a65726f206160008201527f6464726573730000000000000000000000000000000000000000000000000000602082015250565b7f45524332303a20617070726f766520746f20746865207a65726f20616464726560008201527f7373000000000000000000000000000000000000000000000000000000000000602082015250565b7f45524332303a207472616e7366657220616d6f756e742065786365656473206260008201527f616c616e63650000000000000000000000000000000000000000000000000000602082015250565b7f4c6f636b6572206973206e6f7420736574000000000000000000000000000000600082015250565b7f5061757361626c653a2070617573656400000000000000000000000000000000600082015250565b7f496e697469616c697a61626c653a20636f6e747261637420697320616c72656160008201527f647920696e697469616c697a6564000000000000000000000000000000000000602082015250565b7f45524332303a207472616e7366657220616d6f756e742065786365656473206160008201527f6c6c6f77616e6365000000000000000000000000000000000000000000000000602082015250565b7f62616c616e6365206973206c6f636b6564000000000000000000000000000000600082015250565b7f4f776e61626c653a2063616c6c6572206973206e6f7420746865206f776e6572600082015250565b7f45524332303a207472616e736665722066726f6d20746865207a65726f20616460008201527f6472657373000000000000000000000000000000000000000000000000000000602082015250565b7f45524332303a20617070726f76652066726f6d20746865207a65726f2061646460008201527f7265737300000000000000000000000000000000000000000000000000000000602082015250565b7f4c6f636b65722061646472657373206973206e6f742073657400000000000000600082015250565b7f45524332303a2064656372656173656420616c6c6f77616e63652062656c6f7760008201527f207a65726f000000000000000000000000000000000000000000000000000000602082015250565b7f45524332303a206d696e7420746f20746865207a65726f206164647265737300600082015250565b7f45524332305061757361626c653a20746f6b656e207472616e7366657220776860008201527f696c652070617573656400000000000000000000000000000000000000000000602082015250565b61356a81612ff9565b811461357557600080fd5b50565b61358181613017565b811461358c57600080fd5b50565b61359881613041565b81146135a357600080fd5b5056fea26469706673582212206747245f7199a51e0b97d5a0741fa341025be5320c303d783e5b67273ef7a26064736f6c63430008030033",
  "linkReferences": {},
  "deployedLinkReferences": {}
}