{
  "_format": "hh-sol-artifact-1",
  "contractName": "CoinmecaToken",
  "sourceName": "contracts/CoinmecaToken.sol",
  "abi": [
    {
      "anonymous": false,
      "inputs": [
        {
          "indexed": true,
          "internalType": "address",
          "name": "owner",
          "type": "address"
        },
        {
          "indexed": true,
          "internalType": "address",
          "name": "spender",
          "type": "address"
        },
        {
          "indexed": false,
          "internalType": "uint256",
          "name": "value",
          "type": "uint256"
        }
      ],
      "name": "Approval",
      "type": "event"
    },
    {
      "anonymous": false,
      "inputs": [
        {
          "indexed": true,
          "internalType": "address",
          "name": "previousOwner",
          "type": "address"
        },
        {
          "indexed": true,
          "internalType": "address",
          "name": "newOwner",
          "type": "address"
        }
      ],
      "name": "OwnershipTransferred",
      "type": "event"
    },
    {
      "anonymous": false,
      "inputs": [
        {
          "indexed": false,
          "internalType": "address",
          "name": "account",
          "type": "address"
        }
      ],
      "name": "Paused",
      "type": "event"
    },
    {
      "anonymous": false,
      "inputs": [
        {
          "indexed": true,
          "internalType": "address",
          "name": "from",
          "type": "address"
        },
        {
          "indexed": true,
          "internalType": "address",
          "name": "to",
          "type": "address"
        },
        {
          "indexed": false,
          "internalType": "uint256",
          "name": "value",
          "type": "uint256"
        }
      ],
      "name": "Transfer",
      "type": "event"
    },
    {
      "anonymous": false,
      "inputs": [
        {
          "indexed": false,
          "internalType": "address",
          "name": "account",
          "type": "address"
        }
      ],
      "name": "Unpaused",
      "type": "event"
    },
    {
      "inputs": [],
      "name": "TOKEN_LOCKER",
      "outputs": [
        {
          "internalType": "bytes32",
          "name": "",
          "type": "bytes32"
        }
      ],
      "stateMutability": "view",
      "type": "function"
    },
    {
      "inputs": [
        {
          "internalType": "address",
          "name": "owner",
          "type": "address"
        },
        {
          "internalType": "address",
          "name": "spender",
          "type": "address"
        }
      ],
      "name": "allowance",
      "outputs": [
        {
          "internalType": "uint256",
          "name": "",
          "type": "uint256"
        }
      ],
      "stateMutability": "view",
      "type": "function"
    },
    {
      "inputs": [
        {
          "internalType": "address",
          "name": "spender",
          "type": "address"
        },
        {
          "internalType": "uint256",
          "name": "amount",
          "type": "uint256"
        }
      ],
      "name": "approve",
      "outputs": [
        {
          "internalType": "bool",
          "name": "",
          "type": "bool"
        }
      ],
      "stateMutability": "nonpayable",
      "type": "function"
    },
    {
      "inputs": [
        {
          "internalType": "address",
          "name": "account",
          "type": "address"
        }
      ],
      "name": "balanceOf",
      "outputs": [
        {
          "internalType": "uint256",
          "name": "",
          "type": "uint256"
        }
      ],
      "stateMutability": "view",
      "type": "function"
    },
    {
      "inputs": [],
      "name": "decimals",
      "outputs": [
        {
          "internalType": "uint8",
          "name": "",
          "type": "uint8"
        }
      ],
      "stateMutability": "view",
      "type": "function"
    },
    {
      "inputs": [
        {
          "internalType": "address",
          "name": "spender",
          "type": "address"
        },
        {
          "internalType": "uint256",
          "name": "subtractedValue",
          "type": "uint256"
        }
      ],
      "name": "decreaseAllowance",
      "outputs": [
        {
          "internalType": "bool",
          "name": "",
          "type": "bool"
        }
      ],
      "stateMutability": "nonpayable",
      "type": "function"
    },
    {
      "inputs": [
        {
          "internalType": "bytes32",
          "name": "_key",
          "type": "bytes32"
        }
      ],
      "name": "getContractAddress",
      "outputs": [
        {
          "internalType": "address",
          "name": "",
          "type": "address"
        }
      ],
      "stateMutability": "view",
      "type": "function"
    },
    {
      "inputs": [
        {
          "internalType": "address",
          "name": "_account",
          "type": "address"
        },
        {
          "internalType": "uint256",
          "name": "_amount",
          "type": "uint256"
        }
      ],
      "name": "getIsLocked",
      "outputs": [
        {
          "internalType": "bool",
          "name": "",
          "type": "bool"
        }
      ],
      "stateMutability": "view",
      "type": "function"
    },
    {
      "inputs": [
        {
          "internalType": "address",
          "name": "_account",
          "type": "address"
        }
      ],
      "name": "getLock",
      "outputs": [
        {
          "internalType": "uint256",
          "name": "",
          "type": "uint256"
        },
        {
          "internalType": "uint256",
          "name": "",
          "type": "uint256"
        },
        {
          "internalType": "uint256",
          "name": "",
          "type": "uint256"
        },
        {
          "internalType": "uint256",
          "name": "",
          "type": "uint256"
        },
        {
          "internalType": "uint256",
          "name": "",
          "type": "uint256"
        }
      ],
      "stateMutability": "view",
      "type": "function"
    },
    {
      "inputs": [
        {
          "internalType": "address",
          "name": "spender",
          "type": "address"
        },
        {
          "internalType": "uint256",
          "name": "addedValue",
          "type": "uint256"
        }
      ],
      "name": "increaseAllowance",
      "outputs": [
        {
          "internalType": "bool",
          "name": "",
          "type": "bool"
        }
      ],
      "stateMutability": "nonpayable",
      "type": "function"
    },
    {
      "inputs": [
        {
          "internalType": "address",
          "name": "_locker",
          "type": "address"
        }
      ],
      "name": "initialize",
      "outputs": [],
      "stateMutability": "nonpayable",
      "type": "function"
    },
    {
      "inputs": [],
      "name": "name",
      "outputs": [
        {
          "internalType": "string",
          "name": "",
          "type": "string"
        }
      ],
      "stateMutability": "view",
      "type": "function"
    },
    {
      "inputs": [],
      "name": "owner",
      "outputs": [
        {
          "internalType": "address",
          "name": "",
          "type": "address"
        }
      ],
      "stateMutability": "view",
      "type": "function"
    },
    {
      "inputs": [],
      "name": "pause",
      "outputs": [],
      "stateMutability": "nonpayable",
      "type": "function"
    },
    {
      "inputs": [],
      "name": "paused",
      "outputs": [
        {
          "internalType": "bool",
          "name": "",
          "type": "bool"
        }
      ],
      "stateMutability": "view",
      "type": "function"
    },
    {
      "inputs": [],
      "name": "renounceOwnership",
      "outputs": [],
      "stateMutability": "nonpayable",
      "type": "function"
    },
    {
      "inputs": [
        {
          "internalType": "bytes32",
          "name": "_key",
          "type": "bytes32"
        },
        {
          "internalType": "address",
          "name": "_address",
          "type": "address"
        }
      ],
      "name": "setContractAddress",
      "outputs": [],
      "stateMutability": "nonpayable",
      "type": "function"
    },
    {
      "inputs": [],
      "name": "symbol",
      "outputs": [
        {
          "internalType": "string",
          "name": "",
          "type": "string"
        }
      ],
      "stateMutability": "view",
      "type": "function"
    },
    {
      "inputs": [],
      "name": "totalSupply",
      "outputs": [
        {
          "internalType": "uint256",
          "name": "",
          "type": "uint256"
        }
      ],
      "stateMutability": "view",
      "type": "function"
    },
    {
      "inputs": [
        {
          "internalType": "address",
          "name": "recipient",
          "type": "address"
        },
        {
          "internalType": "uint256",
          "name": "amount",
          "type": "uint256"
        }
      ],
      "name": "transfer",
      "outputs": [
        {
          "internalType": "bool",
          "name": "",
          "type": "bool"
        }
      ],
      "stateMutability": "nonpayable",
      "type": "function"
    },
    {
      "inputs": [
        {
          "internalType": "address",
          "name": "sender",
          "type": "address"
        },
        {
          "internalType": "address",
          "name": "recipient",
          "type": "address"
        },
        {
          "internalType": "uint256",
          "name": "amount",
          "type": "uint256"
        }
      ],
      "name": "transferFrom",
      "outputs": [
        {
          "internalType": "bool",
          "name": "",
          "type": "bool"
        }
      ],
      "stateMutability": "nonpayable",
      "type": "function"
    },
    {
      "inputs": [
        {
          "internalType": "address",
          "name": "newOwner",
          "type": "address"
        }
      ],
      "name": "transferOwnership",
      "outputs": [],
      "stateMutability": "nonpayable",
      "type": "function"
    },
    {
      "inputs": [],
      "name": "unpause",
      "outputs": [],
      "stateMutability": "nonpayable",
      "type": "function"
    }
  ],
  "bytecode": "0x608060405234801561001057600080fd5b506134f2806100206000396000f3fe608060405234801561001057600080fd5b506004361061014d5760003560e01c80636b9db4e6116100c3578063a457c2d71161007c578063a457c2d714610396578063a9059cbb146103c6578063c4d66de8146103f6578063dd62ed3e14610412578063e001f84114610442578063f2fde38b1461045e5761014d565b80636b9db4e6146102e257806370a0823114610316578063715018a6146103465780638456cb59146103505780638da5cb5b1461035a57806395d89b41146103785761014d565b806329055dd91161011557806329055dd91461021e578063313ce5671461024e578063395093511461026c5780633b7659531461029c5780633f4ba83a146102ba5780635c975abb146102c45761014d565b806306fdde0314610152578063095ea7b3146101705780630d2020dd146101a057806318160ddd146101d057806323b872dd146101ee575b600080fd5b61015a61047a565b6040516101679190612b9e565b60405180910390f35b61018a60048036038101906101859190612722565b61050c565b6040516101979190612b68565b60405180910390f35b6101ba60048036038101906101b5919061275e565b61052a565b6040516101c79190612b4d565b60405180910390f35b6101d8610567565b6040516101e59190612de0565b60405180910390f35b610208600480360381019061020391906126d3565b610571565b6040516102159190612b68565b60405180910390f35b61023860048036038101906102339190612722565b610672565b6040516102459190612b68565b60405180910390f35b610256610686565b6040516102639190612e4e565b60405180910390f35b61028660048036038101906102819190612722565b61068f565b6040516102939190612b68565b60405180910390f35b6102a461073b565b6040516102b19190612b83565b60405180910390f35b6102c261075f565b005b6102cc6107e5565b6040516102d99190612b68565b60405180910390f35b6102fc60048036038101906102f7919061266e565b6107fc565b60405161030d959493929190612dfb565b60405180910390f35b610330600480360381019061032b919061266e565b6108a7565b60405161033d9190612de0565b60405180910390f35b61034e610a22565b005b610358610b5f565b005b610362610be5565b60405161036f9190612b4d565b60405180910390f35b610380610c0f565b60405161038d9190612b9e565b60405180910390f35b6103b060048036038101906103ab9190612722565b610ca1565b6040516103bd9190612b68565b60405180910390f35b6103e060048036038101906103db9190612722565b610d95565b6040516103ed9190612b68565b60405180910390f35b610410600480360381019061040b919061266e565b610db3565b005b61042c60048036038101906104279190612697565b610f9f565b6040516104399190612de0565b60405180910390f35b61045c60048036038101906104579190612787565b611026565b005b6104786004803603810190610473919061266e565b6110f8565b005b60606068805461048990612fa1565b80601f01602080910402602001604051908101604052809291908181526020018280546104b590612fa1565b80156105025780601f106104d757610100808354040283529160200191610502565b820191906000526020600020905b8154815290600101906020018083116104e557829003601f168201915b5050505050905090565b60006105206105196112a4565b84846112ac565b6001905092915050565b600060fb600083815260200190815260200160002060009054906101000a900473ffffffffffffffffffffffffffffffffffffffff169050919050565b6000606754905090565b600061057e848484611477565b6000606660008673ffffffffffffffffffffffffffffffffffffffff1673ffffffffffffffffffffffffffffffffffffffff16815260200190815260200160002060006105c96112a4565b73ffffffffffffffffffffffffffffffffffffffff1673ffffffffffffffffffffffffffffffffffffffff16815260200190815260200160002054905082811015610649576040517f08c379a000000000000000000000000000000000000000000000000000000000815260040161064090612cc0565b60405180910390fd5b610666856106556112a4565b85846106619190612edb565b6112ac565b60019150509392505050565b600061067e83836116f9565b905092915050565b60006012905090565b600061073161069c6112a4565b8484606660006106aa6112a4565b73ffffffffffffffffffffffffffffffffffffffff1673ffffffffffffffffffffffffffffffffffffffff16815260200190815260200160002060008873ffffffffffffffffffffffffffffffffffffffff1673ffffffffffffffffffffffffffffffffffffffff1681526020019081526020016000205461072c9190612e85565b6112ac565b6001905092915050565b7f546f6b656e4c6f636b657200000000000000000000000000000000000000000081565b6107676112a4565b73ffffffffffffffffffffffffffffffffffffffff16610785610be5565b73ffffffffffffffffffffffffffffffffffffffff16146107db576040517f08c379a00000000000000000000000000000000000000000000000000000000081526004016107d290612d00565b60405180910390fd5b6107e3611974565b565b6000609760009054906101000a900460ff16905090565b600080600080600061080c611a16565b73ffffffffffffffffffffffffffffffffffffffff16636b9db4e6876040518263ffffffff1660e01b81526004016108449190612b4d565b60a06040518083038186803b15801561085c57600080fd5b505afa158015610870573d6000803e3d6000fd5b505050506040513d601f19601f8201168201806040525081019061089491906127ff565b9450945094509450945091939590929450565b60008073ffffffffffffffffffffffffffffffffffffffff1660fb60007f546f6b656e4c6f636b6572000000000000000000000000000000000000000000815260200190815260200160002060009054906101000a900473ffffffffffffffffffffffffffffffffffffffff1673ffffffffffffffffffffffffffffffffffffffff16141561096b576040517f08c379a000000000000000000000000000000000000000000000000000000000815260040161096290612d60565b60405180910390fd5b6000610975611a16565b73ffffffffffffffffffffffffffffffffffffffff166315056b54846040518263ffffffff1660e01b81526004016109ad9190612b4d565b604080518083038186803b1580156109c457600080fd5b505afa1580156109d8573d6000803e3d6000fd5b505050506040513d601f19601f820116820180604052508101906109fc91906127c3565b915050610a1a81610a0c85611a71565b611aba90919063ffffffff16565b915050919050565b610a2a6112a4565b73ffffffffffffffffffffffffffffffffffffffff16610a48610be5565b73ffffffffffffffffffffffffffffffffffffffff1614610a9e576040517f08c379a0000000000000000000000000000000000000000000000000000000008152600401610a9590612d00565b60405180910390fd5b600073ffffffffffffffffffffffffffffffffffffffff16603360009054906101000a900473ffffffffffffffffffffffffffffffffffffffff1673ffffffffffffffffffffffffffffffffffffffff167f8be0079c531659141344cd1fd0a4f28419497f9722a3daafe3b4186f6b6457e060405160405180910390a36000603360006101000a81548173ffffffffffffffffffffffffffffffffffffffff021916908373ffffffffffffffffffffffffffffffffffffffff160217905550565b610b676112a4565b73ffffffffffffffffffffffffffffffffffffffff16610b85610be5565b73ffffffffffffffffffffffffffffffffffffffff1614610bdb576040517f08c379a0000000000000000000000000000000000000000000000000000000008152600401610bd290612d00565b60405180910390fd5b610be3611ad0565b565b6000603360009054906101000a900473ffffffffffffffffffffffffffffffffffffffff16905090565b606060698054610c1e90612fa1565b80601f0160208091040260200160405190810160405280929190818152602001828054610c4a90612fa1565b8015610c975780601f10610c6c57610100808354040283529160200191610c97565b820191906000526020600020905b815481529060010190602001808311610c7a57829003601f168201915b5050505050905090565b60008060666000610cb06112a4565b73ffffffffffffffffffffffffffffffffffffffff1673ffffffffffffffffffffffffffffffffffffffff16815260200190815260200160002060008573ffffffffffffffffffffffffffffffffffffffff1673ffffffffffffffffffffffffffffffffffffffff16815260200190815260200160002054905082811015610d6d576040517f08c379a0000000000000000000000000000000000000000000000000000000008152600401610d6490612d80565b60405180910390fd5b610d8a610d786112a4565b858584610d859190612edb565b6112ac565b600191505092915050565b6000610da9610da26112a4565b8484611477565b6001905092915050565b600060019054906101000a900460ff1680610dd9575060008054906101000a900460ff16155b610e18576040517f08c379a0000000000000000000000000000000000000000000000000000000008152600401610e0f90612ca0565b60405180910390fd5b60008060019054906101000a900460ff161590508015610e68576001600060016101000a81548160ff02191690831515021790555060016000806101000a81548160ff0219169083151502179055505b610e70611b73565b610ee46040518060400160405280600881526020017f436f696e6d6563610000000000000000000000000000000000000000000000008152506040518060400160405280600481526020017f4d45434100000000000000000000000000000000000000000000000000000000815250611c5c565b610eec611d49565b8160fb60007f546f6b656e4c6f636b6572000000000000000000000000000000000000000000815260200190815260200160002060006101000a81548173ffffffffffffffffffffffffffffffffffffffff021916908373ffffffffffffffffffffffffffffffffffffffff160217905550610f7a610f696112a4565b6a084595161401484a000000611e3a565b8015610f9b5760008060016101000a81548160ff0219169083151502179055505b5050565b6000606660008473ffffffffffffffffffffffffffffffffffffffff1673ffffffffffffffffffffffffffffffffffffffff16815260200190815260200160002060008373ffffffffffffffffffffffffffffffffffffffff1673ffffffffffffffffffffffffffffffffffffffff16815260200190815260200160002054905092915050565b61102e6112a4565b73ffffffffffffffffffffffffffffffffffffffff1661104c610be5565b73ffffffffffffffffffffffffffffffffffffffff16146110a2576040517f08c379a000000000000000000000000000000000000000000000000000000000815260040161109990612d00565b60405180910390fd5b8060fb600084815260200190815260200160002060006101000a81548173ffffffffffffffffffffffffffffffffffffffff021916908373ffffffffffffffffffffffffffffffffffffffff1602179055505050565b6111006112a4565b73ffffffffffffffffffffffffffffffffffffffff1661111e610be5565b73ffffffffffffffffffffffffffffffffffffffff1614611174576040517f08c379a000000000000000000000000000000000000000000000000000000000815260040161116b90612d00565b60405180910390fd5b600073ffffffffffffffffffffffffffffffffffffffff168173ffffffffffffffffffffffffffffffffffffffff1614156111e4576040517f08c379a00000000000000000000000000000000000000000000000000000000081526004016111db90612c00565b60405180910390fd5b8073ffffffffffffffffffffffffffffffffffffffff16603360009054906101000a900473ffffffffffffffffffffffffffffffffffffffff1673ffffffffffffffffffffffffffffffffffffffff167f8be0079c531659141344cd1fd0a4f28419497f9722a3daafe3b4186f6b6457e060405160405180910390a380603360006101000a81548173ffffffffffffffffffffffffffffffffffffffff021916908373ffffffffffffffffffffffffffffffffffffffff16021790555050565b600033905090565b600073ffffffffffffffffffffffffffffffffffffffff168373ffffffffffffffffffffffffffffffffffffffff16141561131c576040517f08c379a000000000000000000000000000000000000000000000000000000000815260040161131390612d40565b60405180910390fd5b600073ffffffffffffffffffffffffffffffffffffffff168273ffffffffffffffffffffffffffffffffffffffff16141561138c576040517f08c379a000000000000000000000000000000000000000000000000000000000815260040161138390612c20565b60405180910390fd5b80606660008573ffffffffffffffffffffffffffffffffffffffff1673ffffffffffffffffffffffffffffffffffffffff16815260200190815260200160002060008473ffffffffffffffffffffffffffffffffffffffff1673ffffffffffffffffffffffffffffffffffffffff168152602001908152602001600020819055508173ffffffffffffffffffffffffffffffffffffffff168373ffffffffffffffffffffffffffffffffffffffff167f8c5be1e5ebec7d5bd14f71427d1e84f3dd0314c0f7b2291e5b200ac8c7c3b9258360405161146a9190612de0565b60405180910390a3505050565b600073ffffffffffffffffffffffffffffffffffffffff168373ffffffffffffffffffffffffffffffffffffffff1614156114e7576040517f08c379a00000000000000000000000000000000000000000000000000000000081526004016114de90612d20565b60405180910390fd5b600073ffffffffffffffffffffffffffffffffffffffff168273ffffffffffffffffffffffffffffffffffffffff161415611557576040517f08c379a000000000000000000000000000000000000000000000000000000000815260040161154e90612bc0565b60405180910390fd5b611562838383611f8f565b6000606560008573ffffffffffffffffffffffffffffffffffffffff1673ffffffffffffffffffffffffffffffffffffffff168152602001908152602001600020549050818110156115e9576040517f08c379a00000000000000000000000000000000000000000000000000000000081526004016115e090612c40565b60405180910390fd5b81816115f59190612edb565b606560008673ffffffffffffffffffffffffffffffffffffffff1673ffffffffffffffffffffffffffffffffffffffff1681526020019081526020016000208190555081606560008573ffffffffffffffffffffffffffffffffffffffff1673ffffffffffffffffffffffffffffffffffffffff16815260200190815260200160002060008282546116879190612e85565b925050819055508273ffffffffffffffffffffffffffffffffffffffff168473ffffffffffffffffffffffffffffffffffffffff167fddf252ad1be2c89b69c2b068fc378daa952ba7f163c4a11628f55a4df523b3ef846040516116eb9190612de0565b60405180910390a350505050565b60008073ffffffffffffffffffffffffffffffffffffffff1660fb60007f546f6b656e4c6f636b6572000000000000000000000000000000000000000000815260200190815260200160002060009054906101000a900473ffffffffffffffffffffffffffffffffffffffff1673ffffffffffffffffffffffffffffffffffffffff1614156117bd576040517f08c379a00000000000000000000000000000000000000000000000000000000081526004016117b490612c60565b60405180910390fd5b6000806117c8611a16565b73ffffffffffffffffffffffffffffffffffffffff16636b9db4e6866040518263ffffffff1660e01b81526004016118009190612b4d565b60a06040518083038186803b15801561181857600080fd5b505afa15801561182c573d6000803e3d6000fd5b505050506040513d601f19601f8201168201806040525081019061185091906127ff565b94505050509150600082148061186557504281105b156118755760009250505061196e565b428211156118885760019250505061196e565b6000611892611a16565b73ffffffffffffffffffffffffffffffffffffffff166315056b54876040518263ffffffff1660e01b81526004016118ca9190612b4d565b604080518083038186803b1580156118e157600080fd5b505afa1580156118f5573d6000803e3d6000fd5b505050506040513d601f19601f8201168201806040525081019061191991906127c3565b9150506000811415611931576000935050505061196e565b600061193c87611a71565b9050816119528783611aba90919063ffffffff16565b101561196557600194505050505061196e565b60009450505050505b92915050565b61197c6107e5565b6119bb576040517f08c379a00000000000000000000000000000000000000000000000000000000081526004016119b290612be0565b60405180910390fd5b6000609760006101000a81548160ff0219169083151502179055507f5db9ee0a495bf2e6ff9c91a7834c1ba4fdd244a5e8aa4e537bd38aeae4b073aa6119ff6112a4565b604051611a0c9190612b4d565b60405180910390a1565b600060fb60007f546f6b656e4c6f636b6572000000000000000000000000000000000000000000815260200190815260200160002060009054906101000a900473ffffffffffffffffffffffffffffffffffffffff16905090565b6000606560008373ffffffffffffffffffffffffffffffffffffffff1673ffffffffffffffffffffffffffffffffffffffff168152602001908152602001600020549050919050565b60008183611ac89190612edb565b905092915050565b611ad86107e5565b15611b18576040517f08c379a0000000000000000000000000000000000000000000000000000000008152600401611b0f90612c80565b60405180910390fd5b6001609760006101000a81548160ff0219169083151502179055507f62e78cea01bee320cd4e420270b5ea74000d11b0c9f74754ebdbfc544b05a258611b5c6112a4565b604051611b699190612b4d565b60405180910390a1565b600060019054906101000a900460ff1680611b99575060008054906101000a900460ff16155b611bd8576040517f08c379a0000000000000000000000000000000000000000000000000000000008152600401611bcf90612ca0565b60405180910390fd5b60008060019054906101000a900460ff161590508015611c28576001600060016101000a81548160ff02191690831515021790555060016000806101000a81548160ff0219169083151502179055505b611c30611fe9565b611c386120c2565b8015611c595760008060016101000a81548160ff0219169083151502179055505b50565b600060019054906101000a900460ff1680611c82575060008054906101000a900460ff16155b611cc1576040517f08c379a0000000000000000000000000000000000000000000000000000000008152600401611cb890612ca0565b60405180910390fd5b60008060019054906101000a900460ff161590508015611d11576001600060016101000a81548160ff02191690831515021790555060016000806101000a81548160ff0219169083151502179055505b611d19611fe9565b611d238383612244565b8015611d445760008060016101000a81548160ff0219169083151502179055505b505050565b600060019054906101000a900460ff1680611d6f575060008054906101000a900460ff16155b611dae576040517f08c379a0000000000000000000000000000000000000000000000000000000008152600401611da590612ca0565b60405180910390fd5b60008060019054906101000a900460ff161590508015611dfe576001600060016101000a81548160ff02191690831515021790555060016000806101000a81548160ff0219169083151502179055505b611e06611fe9565b611e0e61234d565b611e16612441565b8015611e375760008060016101000a81548160ff0219169083151502179055505b50565b600073ffffffffffffffffffffffffffffffffffffffff168273ffffffffffffffffffffffffffffffffffffffff161415611eaa576040517f08c379a0000000000000000000000000000000000000000000000000000000008152600401611ea190612da0565b60405180910390fd5b611eb660008383611f8f565b8060676000828254611ec89190612e85565b9250508190555080606560008473ffffffffffffffffffffffffffffffffffffffff1673ffffffffffffffffffffffffffffffffffffffff1681526020019081526020016000206000828254611f1e9190612e85565b925050819055508173ffffffffffffffffffffffffffffffffffffffff16600073ffffffffffffffffffffffffffffffffffffffff167fddf252ad1be2c89b69c2b068fc378daa952ba7f163c4a11628f55a4df523b3ef83604051611f839190612de0565b60405180910390a35050565b611f9a83838361251a565b611fa483826116f9565b15611fe4576040517f08c379a0000000000000000000000000000000000000000000000000000000008152600401611fdb90612ce0565b60405180910390fd5b505050565b600060019054906101000a900460ff168061200f575060008054906101000a900460ff16155b61204e576040517f08c379a000000000000000000000000000000000000000000000000000000000815260040161204590612ca0565b60405180910390fd5b60008060019054906101000a900460ff16159050801561209e576001600060016101000a81548160ff02191690831515021790555060016000806101000a81548160ff0219169083151502179055505b80156120bf5760008060016101000a81548160ff0219169083151502179055505b50565b600060019054906101000a900460ff16806120e8575060008054906101000a900460ff16155b612127576040517f08c379a000000000000000000000000000000000000000000000000000000000815260040161211e90612ca0565b60405180910390fd5b60008060019054906101000a900460ff161590508015612177576001600060016101000a81548160ff02191690831515021790555060016000806101000a81548160ff0219169083151502179055505b60006121816112a4565b905080603360006101000a81548173ffffffffffffffffffffffffffffffffffffffff021916908373ffffffffffffffffffffffffffffffffffffffff1602179055508073ffffffffffffffffffffffffffffffffffffffff16600073ffffffffffffffffffffffffffffffffffffffff167f8be0079c531659141344cd1fd0a4f28419497f9722a3daafe3b4186f6b6457e060405160405180910390a35080156122415760008060016101000a81548160ff0219169083151502179055505b50565b600060019054906101000a900460ff168061226a575060008054906101000a900460ff16155b6122a9576040517f08c379a00000000000000000000000000000000000000000000000000000000081526004016122a090612ca0565b60405180910390fd5b60008060019054906101000a900460ff1615905080156122f9576001600060016101000a81548160ff02191690831515021790555060016000806101000a81548160ff0219169083151502179055505b826068908051906020019061230f929190612577565b508160699080519060200190612326929190612577565b5080156123485760008060016101000a81548160ff0219169083151502179055505b505050565b600060019054906101000a900460ff1680612373575060008054906101000a900460ff16155b6123b2576040517f08c379a00000000000000000000000000000000000000000000000000000000081526004016123a990612ca0565b60405180910390fd5b60008060019054906101000a900460ff161590508015612402576001600060016101000a81548160ff02191690831515021790555060016000806101000a81548160ff0219169083151502179055505b6000609760006101000a81548160ff021916908315150217905550801561243e5760008060016101000a81548160ff0219169083151502179055505b50565b600060019054906101000a900460ff1680612467575060008054906101000a900460ff16155b6124a6576040517f08c379a000000000000000000000000000000000000000000000000000000000815260040161249d90612ca0565b60405180910390fd5b60008060019054906101000a900460ff1615905080156124f6576001600060016101000a81548160ff02191690831515021790555060016000806101000a81548160ff0219169083151502179055505b80156125175760008060016101000a81548160ff0219169083151502179055505b50565b612525838383612572565b61252d6107e5565b1561256d576040517f08c379a000000000000000000000000000000000000000000000000000000000815260040161256490612dc0565b60405180910390fd5b505050565b505050565b82805461258390612fa1565b90600052602060002090601f0160209004810192826125a557600085556125ec565b82601f106125be57805160ff19168380011785556125ec565b828001600101855582156125ec579182015b828111156125eb5782518255916020019190600101906125d0565b5b5090506125f991906125fd565b5090565b5b808211156126165760008160009055506001016125fe565b5090565b60008135905061262981613477565b92915050565b60008135905061263e8161348e565b92915050565b600081359050612653816134a5565b92915050565b600081519050612668816134a5565b92915050565b60006020828403121561268057600080fd5b600061268e8482850161261a565b91505092915050565b600080604083850312156126aa57600080fd5b60006126b88582860161261a565b92505060206126c98582860161261a565b9150509250929050565b6000806000606084860312156126e857600080fd5b60006126f68682870161261a565b93505060206127078682870161261a565b925050604061271886828701612644565b9150509250925092565b6000806040838503121561273557600080fd5b60006127438582860161261a565b925050602061275485828601612644565b9150509250929050565b60006020828403121561277057600080fd5b600061277e8482850161262f565b91505092915050565b6000806040838503121561279a57600080fd5b60006127a88582860161262f565b92505060206127b98582860161261a565b9150509250929050565b600080604083850312156127d657600080fd5b60006127e485828601612659565b92505060206127f585828601612659565b9150509250929050565b600080600080600060a0868803121561281757600080fd5b600061282588828901612659565b955050602061283688828901612659565b945050604061284788828901612659565b935050606061285888828901612659565b925050608061286988828901612659565b9150509295509295909350565b61287f81612f0f565b82525050565b61288e81612f21565b82525050565b61289d81612f2d565b82525050565b60006128ae82612e69565b6128b88185612e74565b93506128c8818560208601612f6e565b6128d181613031565b840191505092915050565b60006128e9602383612e74565b91506128f482613042565b604082019050919050565b600061290c601483612e74565b915061291782613091565b602082019050919050565b600061292f602683612e74565b915061293a826130ba565b604082019050919050565b6000612952602283612e74565b915061295d82613109565b604082019050919050565b6000612975602683612e74565b915061298082613158565b604082019050919050565b6000612998601183612e74565b91506129a3826131a7565b602082019050919050565b60006129bb601083612e74565b91506129c6826131d0565b602082019050919050565b60006129de602e83612e74565b91506129e9826131f9565b604082019050919050565b6000612a01602883612e74565b9150612a0c82613248565b604082019050919050565b6000612a24601183612e74565b9150612a2f82613297565b602082019050919050565b6000612a47602083612e74565b9150612a52826132c0565b602082019050919050565b6000612a6a602583612e74565b9150612a75826132e9565b604082019050919050565b6000612a8d602483612e74565b9150612a9882613338565b604082019050919050565b6000612ab0601983612e74565b9150612abb82613387565b602082019050919050565b6000612ad3602583612e74565b9150612ade826133b0565b604082019050919050565b6000612af6601f83612e74565b9150612b01826133ff565b602082019050919050565b6000612b19602a83612e74565b9150612b2482613428565b604082019050919050565b612b3881612f57565b82525050565b612b4781612f61565b82525050565b6000602082019050612b626000830184612876565b92915050565b6000602082019050612b7d6000830184612885565b92915050565b6000602082019050612b986000830184612894565b92915050565b60006020820190508181036000830152612bb881846128a3565b905092915050565b60006020820190508181036000830152612bd9816128dc565b9050919050565b60006020820190508181036000830152612bf9816128ff565b9050919050565b60006020820190508181036000830152612c1981612922565b9050919050565b60006020820190508181036000830152612c3981612945565b9050919050565b60006020820190508181036000830152612c5981612968565b9050919050565b60006020820190508181036000830152612c798161298b565b9050919050565b60006020820190508181036000830152612c99816129ae565b9050919050565b60006020820190508181036000830152612cb9816129d1565b9050919050565b60006020820190508181036000830152612cd9816129f4565b9050919050565b60006020820190508181036000830152612cf981612a17565b9050919050565b60006020820190508181036000830152612d1981612a3a565b9050919050565b60006020820190508181036000830152612d3981612a5d565b9050919050565b60006020820190508181036000830152612d5981612a80565b9050919050565b60006020820190508181036000830152612d7981612aa3565b9050919050565b60006020820190508181036000830152612d9981612ac6565b9050919050565b60006020820190508181036000830152612db981612ae9565b9050919050565b60006020820190508181036000830152612dd981612b0c565b9050919050565b6000602082019050612df56000830184612b2f565b92915050565b600060a082019050612e106000830188612b2f565b612e1d6020830187612b2f565b612e2a6040830186612b2f565b612e376060830185612b2f565b612e446080830184612b2f565b9695505050505050565b6000602082019050612e636000830184612b3e565b92915050565b600081519050919050565b600082825260208201905092915050565b6000612e9082612f57565b9150612e9b83612f57565b9250827fffffffffffffffffffffffffffffffffffffffffffffffffffffffffffffffff03821115612ed057612ecf612fd3565b5b828201905092915050565b6000612ee682612f57565b9150612ef183612f57565b925082821015612f0457612f03612fd3565b5b828203905092915050565b6000612f1a82612f37565b9050919050565b60008115159050919050565b6000819050919050565b600073ffffffffffffffffffffffffffffffffffffffff82169050919050565b6000819050919050565b600060ff82169050919050565b60005b83811015612f8c578082015181840152602081019050612f71565b83811115612f9b576000848401525b50505050565b60006002820490506001821680612fb957607f821691505b60208210811415612fcd57612fcc613002565b5b50919050565b7f4e487b7100000000000000000000000000000000000000000000000000000000600052601160045260246000fd5b7f4e487b7100000000000000000000000000000000000000000000000000000000600052602260045260246000fd5b6000601f19601f8301169050919050565b7f45524332303a207472616e7366657220746f20746865207a65726f206164647260008201527f6573730000000000000000000000000000000000000000000000000000000000602082015250565b7f5061757361626c653a206e6f7420706175736564000000000000000000000000600082015250565b7f4f776e61626c653a206e6577206f776e657220697320746865207a65726f206160008201527f6464726573730000000000000000000000000000000000000000000000000000602082015250565b7f45524332303a20617070726f766520746f20746865207a65726f20616464726560008201527f7373000000000000000000000000000000000000000000000000000000000000602082015250565b7f45524332303a207472616e7366657220616d6f756e742065786365656473206260008201527f616c616e63650000000000000000000000000000000000000000000000000000602082015250565b7f4c6f636b6572206973206e6f7420736574000000000000000000000000000000600082015250565b7f5061757361626c653a2070617573656400000000000000000000000000000000600082015250565b7f496e697469616c697a61626c653a20636f6e747261637420697320616c72656160008201527f647920696e697469616c697a6564000000000000000000000000000000000000602082015250565b7f45524332303a207472616e7366657220616d6f756e742065786365656473206160008201527f6c6c6f77616e6365000000000000000000000000000000000000000000000000602082015250565b7f62616c616e6365206973206c6f636b6564000000000000000000000000000000600082015250565b7f4f776e61626c653a2063616c6c6572206973206e6f7420746865206f776e6572600082015250565b7f45524332303a207472616e736665722066726f6d20746865207a65726f20616460008201527f6472657373000000000000000000000000000000000000000000000000000000602082015250565b7f45524332303a20617070726f76652066726f6d20746865207a65726f2061646460008201527f7265737300000000000000000000000000000000000000000000000000000000602082015250565b7f4c6f636b65722061646472657373206973206e6f742073657400000000000000600082015250565b7f45524332303a2064656372656173656420616c6c6f77616e63652062656c6f7760008201527f207a65726f000000000000000000000000000000000000000000000000000000602082015250565b7f45524332303a206d696e7420746f20746865207a65726f206164647265737300600082015250565b7f45524332305061757361626c653a20746f6b656e207472616e7366657220776860008201527f696c652070617573656400000000000000000000000000000000000000000000602082015250565b61348081612f0f565b811461348b57600080fd5b50565b61349781612f2d565b81146134a257600080fd5b50565b6134ae81612f57565b81146134b957600080fd5b5056fea26469706673582212207aa6bc3400a1086aec8645cb63b6025f8cd4f419a5ff8c10ac1796491771f0e464736f6c63430008030033",
  "linkReferences": {},
  "deployedLinkReferences": {}
}